:060000000A128A1100291A
:10000800F000030EF1004E2154210B181020710E40
:100018008300F00E700E090003138312061C850A74
:08002800861C85030B10080083
:10020000062129213021392141210529031783168F
:1002100088018901031383160510851005118511C6
:100220000313831285010313831606148614031324
:100230008312860103138316071087100711871195
:100240000313831287010313831681131514951466
:100250000800031383160F140F178F160F120800D0
:1002600003138316161496140313831206080B1037
:100270000800031383128B178B150B108B160B11B1
:1002800008000313831681128111011581140110D6
:1002900003138312643081000B11080003138312CF
:1002A000643081000B110800F20A32307206031D1F
:0A02B0000800870AF201830108002C
:04400E00C430FF3F7C
:00000001FF
